:020000040800F2
:1000000018040020490100085101000853010008AC
:1000100055010008570100085901000800000000C0
:100020000000000000000000000000005B0100086C
:100030005D010008000000005F0100086101000888
:100040000F0B000897090008E50A0008D509000809
:1000500071040008D109000863040008670400085F
:10006000690400086B0400086D0400084F040008D0
:100070005104000853040008550400085704000800
:10008000590400085B04000891010008630100089E
:100090006301000863010008630100086F040008A1
:1000A000E70A0008ED0A0008EB0A0008E90A000860
:1000B000EF0A0008F10A0008F30A00082905000801
:1000C000270500082D0500082B050008D9090008A0
:1000D000DB090008070B0008090B00080B0B0008E0
:1000E00065040008D30900080D0B0008FB0A00088E
:1000F000010B0008FF0A0008FD0A00089301000830
:1001000073040008D7090008F50A0008DD09000893
:10011000030B0008050B0008F70A0008F90A00089D
:100120005D0400085F040008610400086301000822
:10013000DFF810D000F01AF800480047310B000833
:10014000AFF30080180400200648804706480047A7
:10015000FEE7FEE7FEE7FEE7FEE7FEE7FEE7FEE777
:10016000FEE7FEE7950A000831010008064C074D3E
:1001700006E0E06840F0010394E807009847103477
:10018000AC42F6D3FFF7D8FF6C1100088C110008C1
:100190007047704710B500F0E3F900F0C8F900F0BF
:1001A000C6F9BDE8104000F0F7B80000F0B5827A5B
:1001B00001219140304C226842F0010222602E4D14
:1001C0001C352A688A432A602B4A067B0C322B4B4B
:1001D000002E14D116688E4316604688C78846EAFA
:1001E0000746877A03EBC707C7F840660688878803
:1001F00046EA0746877A03EBC707C7F84466067BDB
:10020000012E14D116680E4316604288068842EA11
:100210000642867A03EBC606C6F84026C288868860
:1002200042EA0642867A03EBC603C3F84426124A22
:10023000C37A121D3BB113680B4313600E4A038946
:10024000143223B106E013688B431360F6E713689A
:100250008B4313600389012B02D113680B43136096
:10026000407B012802D1286808432860206820F0DC
:1002700001002060F0BD000000660040006000400A
:10028000002A03D042690A434261704742698A43A7
:100290004261704710B50022036823F00203036037
:1002A000036843F0010303604FF6FF7300E0521C44
:1002B0004468E40701D19A42F9D14268D2073ED09E
:1002C0008A79012A3DD0026822F080020260CA7950
:1002D000012A3BD0026822F0400202600A7A012A19
:1002E00039D0026822F0200202604A7A012A37D00F
:1002F000026822F0100202608A7A012A35D0026870
:1003000022F008020260CA7A012A33D0026822F081
:10031000040202608A78CC78920742EA04620C797F
:1003200042EA04424C79098842EA0452491E0A43CF
:10033000C261016821F001010160002120E000207C
:1003400010BD026842F080020260C0E7026842F01D
:1003500040020260C2E7026842F020020260C4E785
:10036000026842F010020260C6E7026842F008022A
:100370000260C8E7026842F004020260CAE7491C52
:100380004268D20701D09942F9D14068C00701D034
:10039000002010BD012010BD08B5012202210A482D
:1003A000FFF76EFF4FF4A06000F054F915208DF8B0
:1003B000000001208DF801008DF802008DF8030087
:1003C000684600F015F908BD0064004010B500EB68
:1003D0000113D3F8B04104F004041472002C2CD0A3
:1003E000D3F8B041E408546003F5D8731C6804F0F6
:1003F000020454725C6804F00F0494725C68240A6E
:10040000D4749C68D4729C68240A14739C68240C6D
:1004100054739C68240E9473DC68D473DC68240ADB
:100420001474DC68240C5474DB681B0E937449B19B
:10043000016941F02001016110BDD3F8B041640DA4
:100440001460D1E7C16841F02001C16010BD704760
:1004500070477047704770477047704770477047E4
:1004600070477047704770477047704770477047D4
:10047000704770472DE9F0410022CC7804F00F035B
:10048000E40601D58C7823430C784FF00F0714F065
:10049000FF0F4FF0010C1CD005680CFA02F40E8817
:1004A0002640A64211D1960007FA06F825EA08056B
:1004B00003FA06F848EA0505CE78282E02D0482E21
:1004C00002D002E0446100E00461521C082AE4D337
:1004D00005600A88FF2A1ED94568002202F1080635
:1004E0000CFA06F40E882640A64210D1960007FAB0
:1004F00006F825EA080503FA06F848EA0505CE7865
:10050000282E00D14461CE78482E00D10461521CBF
:10051000082AE3D34560BDE8F081002A01D00161DB
:1005200070474161704770477047704770471FB50B
:1005300001218DF80D100020ADF80800ADF8000085
:10054000ADF80200ADF80400ADF806008DF80B0020
:100550008DF80A008DF80C106846FFF727FE1FBDC6
:100560007FB50121042000F025FA0121480600F0A2
:1005700013FA18208DF80F004FF48050ADF80C00DE
:1005800003248DF80E40184D03A92846FFF772FF8B
:1005900048218DF80F10E914ADF80C108DF80E40BD
:1005A00003A92846FFF766FF00208DF807008DF8A5
:1005B000080004218DF8041002228DF805208DF822
:1005C00002008DF80900ADF800108DF80A00012135
:1005D0008DF803108DF806008DF80B00694603486E
:1005E000FFF758FE7FBD0000000801400064004096
:1005F00070B50F23C27801260178002A1ED0144A54
:10060000126802F4E062C2F5E062120AC2F1040468
:10061000D3404578A54082781A402A43120101F15F
:10062000E02181F80024007800F01F018E4040098D
:10063000800000F1E020C0F8006170BD01F01F00F3
:1006400086404809800000F1E020C0F8806170BD5C
:100650000CED00E0024908430249086070470000C1
:100660000000FA050CED00E070B5002500212846D9
:1006700000F0F6F80024002000F07CF9641CE4B2DD
:10068000802CF8D36D1CEDB2082DEFD370BD0000A7
:10069000F8B50121082000F08DF914208DF8030031
:1006A00003208DF802004FF48074ADF800400B4E2B
:1006B00069463046FFF7DEFE6500ADF8005069463A
:1006C0003046FFF7D7FE012221463046FFF725FFCF
:1006D000012229463046FFF720FFF8BD000C0140FB
:1006E0002DE9F04707460024134D4FF080094FF4E1
:1006F0000078AE1529FA04F23A4041462846FFF741
:100700000CFF012231462846FFF707FF0022314641
:100710002846FFF702FF641CE4B2082CEAD301224A
:1007200031462846FFF7F9FE31462846BDE8F04736
:100730000022FFF7F2BE0000000C014070B501225C
:100740000B4D540221462846FFF7E7FE0122160210
:1007500031462846FFF7E1FE002221462846FFF7F2
:10076000DCFE31462846BDE870400022FFF7D5BECA
:10077000000C014070B50A4D4FF400740022214670
:100780002846FFF7CAFE012211022846FFF7C5FEE0
:1007900021462846BDE870400122FFF7BEBE00009A
:1007A000000C014010B500214FF47A720020401C6B
:1007B0009042FCD3491C9142F8D3FFF769FFAE2069
:1007C00000F0C7F8D52000F0C4F8802000F0C1F890
:1007D000A82000F0BEF83F2000F0BBF8D32000F0C6
:1007E000B8F8002000F0B5F8402000F0B2F8A120E1
:1007F00000F0AFF8C82000F0ACF8DA2000F0A9F85B
:10080000122000F0A6F8812000F0A3F8CF2000F01D
:10081000A0F8D92000F09DF8F12000F09AF8DB2034
:1008200000F097F8302000F094F8A42000F091F840
:10083000A62000F08EF88D2000F08BF8142000F038
:1008400088F8AF2000F085F8BDE81040FFF70CBF36
:100850000346012000E05843491E4A1CFBD1704763
:1008600010B50C4640F0B00000F073F8102040EADC
:10087000141000F06EF804F00F00BDE8104000F016
:1008800068B800002DE9F0411546491E461ECF000C
:100890007006F9B2000EFFF7E3FF00240E48203D7A
:1008A00000EB0515285D00F065F8641CE4B2082C27
:1008B000F8D3012000EB4600F9B2C0B2FFF7D0FF39
:1008C00000242819007A00F055F8641CE4B2082CC2
:1008D000F7D3BDE8F08100007C0B00082DE9F0475C
:1008E00081460E4690461F4600241BE0391B491ED8
:1008F0001020FFF7ADFFB8FBF0F000F00F050A2D58
:1009000007D230193035C1B2EAB24846FFF7BAFF14
:1009100006E030193735C1B2EAB24846FFF7B2FFF8
:10092000641CE4B2BC42E1D3BDE8F0872DE9F0419C
:1009300007460D461646002406E02819C1B238467F
:10094000FFF7A0FF641CE4B2325D002AF5D1BDE8D8
:10095000F08110B50446FFF7F1FE7820FFF7C0FEE6
:100960000020FFF7BDFE2046FFF7BAFEBDE81040AD
:10097000FFF700BF10B50446FFF7E0FE7820FFF751
:10098000AFFE4020FFF7ACFE2046FFF7A9FEBDE812
:100990001040FFF7EFBE7047054A002903D0D16928
:1009A0000143D1617047D1698143D1617047000033
:1009B00000100240054A002903D09169014391616A
:1009C00070479169814391617047000000100240B7
:1009D000704770477047704770477047704700F026
:1009E00001B800000CB5002201920092274801686E
:1009F00041F4803101604FF4A063016801F40031DB
:100A000000910199491C0191009911B901999942EC
:100A1000F3D10168890302D50121009100E0009221
:100A20000099012930D11A490A6842F010020A607F
:100A30000A6822F003020A600A6842F002020A60B1
:100A40004168416041684160416841F480614160B2
:100A5000416821F47C114160416841F4E811416032
:100A6000016841F08071016001688901FCD541682D
:100A700021F003014160416841F002014160416899
:100A8000C1F381010229FAD10CBD0000001002401F
:100A90000020024010B50F48016841F001010160DB
:100AA00041680D4A1140416001680C4A11400160E3
:100AB000016821F480210160416821F4FE01416058
:100AC0004FF41F018160FFF78AFF05494FF0006076
:100AD000086010BD001002400000FFF8FFFFF6FEA6
:100AE00008ED00E0704770477047704770477047E7
:100AF000704770477047704770477047704770473E
:100B0000704770477047704770477047704770472D
:100B100002E008C8121F08C1002AFAD170477047C6
:100B2000002001E001C1121F002AFBD17047000024
:100B3000FFF738FEFFF72EFB01210BA20846FFF757
:100B4000F5FE0B4C0B4E0C4D094A00213046FFF7C9
:100B50003DFC217BE27A41EA02226A8004230721DC
:100B60000120FFF7BBFEEFE773706565643A000094
:100B7000040000200064004000000020000000008D
:100B8000000000000000000000000000000000F86D
:100B900000000000000000333000000000100C06D0
:100BA000100C0600000000000000000040C078406B
:100BB000C0784000043F04043F040400007088FC37
:100BC00008300000001820FF211E0000F008F0008F
:100BD000E018000000211C031E211E0000F0088800
:100BE000700000001E2123241927211010160E006A
:100BF000000000000000000000000000000000E015
:100C00001804020000000007182040000002041829
:100C1000E00000000040201807000000404080F085
:100C2000804040000202010F01020200000000F0BB
:100C3000000000000101011F01010100000000008F
:100C40000000000080B07000000000000000000004
:100C5000000000000001010101010101000000008D
:100C60000000000000303000000000000000000024
:100C700080601804006018060100000000E0100801
:100C80000810E000000F102020100F00001010F8D6
:100C9000000000000020203F202000000070080815
:100CA0000888700000302824222130000030088895
:100CB000884830000018202020110E000000C020BD
:100CC00010F8000000070424243F240000F80888DE
:100CD000880808000019212020110E0000E010886B
:100CE00088180000000F112020110E00003808089D
:100CF000C83808000000003F0000000000708808AD
:100D000008887000001C222121221C0000E010082D
:100D10000810E0000000312222110F00000000C086
:100D2000C000000000000030300000000000008023
:100D30000000000000008060000000000000804013
:100D4000201008000001020408102000404040402C
:100D5000404040000404040404040400000810207F
:100D600040800000002010080402010000704808C4
:100D70000808F0000000003036010000C030C8282C
:100D8000E810E0000718272423140B000000C038E7
:100D9000E0000000203C23020227382008F8888861
:100DA00088700000203F202020110E00C03008086D
:100DB00008083800071820202010080008F8080844
:100DC0000810E000203F202020100F0008F888883D
:100DD000E8081000203F20202320180008F8888809
:100DE000E8081000203F200003000000C030080881
:100DF0000838000007182020221E020008F808000A
:100E00000008F808203F210101213F20000808F8D0
:100E1000080800000020203F2020000000000808F3
:100E2000F8080800C08080807F00000008F888C0B3
:100E300028180800203F20012638200008F8080064
:100E400000000000203F20202020300008F8F8009B
:100E5000F8F80800203F003F003F200008F830C0AD
:100E60000008F808203F200007183F00E01008089D
:100E70000810E0000F10202020100F0008F80808CC
:100E80000808F000203F210101010000E0100808DF
:100E90000810E0000F18242438504F0008F8888804
:100EA00088887000203F2000030C302000708808E4
:100EB000080838000038202121221C00180808F8F2
:100EC000080818000000203F2000000008F8080073
:100ED0000008F808001F202020201F000878880044
:100EE00000C83808000007380E010000F80800F8B4
:100EF0000008F800033C0700073C0300081868805E
:100F00008068180820302C03032C30200838C800D3
:100F1000C83808000000203F200000001008080822
:100F2000C83808002038262120201800000000FEC4
:100F3000020202000000007F40404000000C30C070
:100F400000000000000000010638C000000202029C
:100F5000FE000000004040407F000000000004024E
:100F60000202040000000000000000000000000079
:100F70000000000080808080808080800002020469
:100F80000000000000000000000000000000808061
:100F9000808000000019242222223F2008F80080CF
:100FA00080000000003F112020110E000000008092
:100FB00080800000000E1120202011000000008021
:100FC0008088F800000E112020103F200000808053
:100FD00080800000001F222222221300008080F067
:100FE000888888180020203F202000000000808092
:100FF00080808000006B94949493600008F80080D7
:1010000080800000203F210000203F200080989831
:10101000000000000020203F202000000000008091
:101020009898000000C08080807F000008F80000D1
:1010300080808000203F24022D302000000808F826
:10104000000000000020203F2020000080808080E1
:1010500080808000203F20003F20003F8080008073
:1010600080800000203F210000203F200000808081
:1010700080800000001F202020201F008080008032
:101080008000000080FFA12020110E0000000080E1
:1010900080808000000E112020A0FF8080808000D2
:1010A0008080800020203F212000010000008080FF
:1010B000808080000033242424241900008080E0F4
:1010C000808000000000001F2020000080800000C1
:1010D00000808000001F202020103F2080808000A2
:1010E0000080808000010E300806010080800080B2
:1010F000008080800F300C030C300F0000808000D7
:10110000808080000020312E0E3120008080800001
:101110000080808080818E701806010000808080B1
:10112000808080000021302C22213000000000004F
:10113000807C020200000000003F404000000000F0
:10114000FF00000000000000FF0000000002027C21
:10115000800000000040403F000000000006010148
:101160000202040400000000000000008C110008CE
:101170000000002004000000100B0008901100087F
:101180000400002014040000200B000800000000F0
:0400000508000131BD
:00000001FF
